:060000000200860210FB65
:01000B0032C2
:03001300021224B2
:100018000000E2FBEAF2802C0000E0FBEAF080241A
:10002800E6B50202EBF62200E2B50202EBF222008C
:10003800E0B50202EBF02230F6E0A88220F5D3EA20
:10004800C6F582228B822230F6E6A88220F5D98076
:01005800CFD8
:1000DF00752200752300752400752500752601759E
:1000EF002701752819752901E4F52AF52B789076E3
:1000FF00187891763C7892763C7893760778947658
:10010F001F7895760C78967664789776007898763F
:10011F000078997600789A7600789B7601789C76AD
:08012F0001789D7600020059E1
:030059000213C1CE
:10013700AE82AF837C007D00C3EC9EED9F50147AA6
:10014700057B001ABAFF011BEA4B70F70CBC00E8ED
:100157000D80E522AE82AF837C007D00C3EC9EED6F
:100167009F50147AFB7B041ABAFF011BEA4B70F706
:100177000CBC00E80D80E522D292900032120137C4
:10018700C292900032020137E582FF540124FF92A8
:1001970093EF03540124FF9294EF0303540124FFC8
:1001A7009295EFA2E3E43324FF929602017FAF8298
:1001B700C290C291EFC4540FF582C00712018FD0CD
:1001C70007740F5FF58212018F900032020137AF7B
:1001D70082D290C291EFC4540FF582C00712018FEB
:1001E700D007740F5FF58212018F9000320201373A
:1001F700AD82AE83AFF08D828E838FF0121529FC0E
:1002070060188C820DBD00010EC007C006C0051224
:1002170001D6D005D006D00780DC227582011201F5
:10022700B5900032020137E5827008AF5274802F13
:10023700FF8006AE5274C02EFF8F820201B5C290B6
:10024700C291C29290001412013775820312018F76
:1002570090000512013775820312018F9000051275
:10026700013775820312018F9000051201377582DD
:100277000212018F7582281201B575820C1201B521
:100287007582061201B57582011201B5900002024E
:100297000137AF82AC08AD09AE0A8F0375F00AEBE0
:1002A7008424308C828D838EF01214A474012CF96F
:1002B700E43DFA8E0375F00AEF84AFF074302F89AE
:1002C700828A838BF01214A474022CFCE43DFD8C0B
:1002D700828D838EF0E40214A4D2B1D2B0900001D3
:1002E700020137D2B1D2B0900001120137C2B190EA
:1002F7000001120137C2B022C2B1D2B09000011280
:100307000137D2B1900001020137AF827E008F051D
:10031700530580ED24FF92B1D2B0900001C007C011
:1003270006120137D006D007C2B0EF2FFF0EBE0866
:100337000040DBD2B1D2B0900001120137A2B192D6
:1003470000C2B0A200B322AF827E00D2B17D00EE20
:100357002EFED2B0900001C007C006C005120137BB
:10036700D005D006D00730B103430601C2B09000D4
:1003770001C007C006C005120137D005D006D00757
:100387000DBD080040C9EFB401009201E43324FF1A
:1003970092B1D2B0900001C006120137D006C2B0A8
:1003A700D2B18E8222AF828F0675F00AEE84C454D2
:1003B700F0FE75F00AEF84E5F04EF58222E582FF44
:1003C700C4540F75F00AA4FE740F5F2EF582221233
:1003D70002EA7582D0120311758200120311758229
:1003E700001203110202FFAF82C0071202EA7582F0
:1003F700D01203117582001203118554821203ACC7
:100407001203118553821203AC120311D0078F8296
:100417001203AC1203118555821203AC1203118526
:1004270056821203AC1203118557821203AC1203D2
:10043700118558821203AC1203110202FFAD82AE7E
:1004470083AFF0C007C006C0051202EA7582D0125A
:1004570003117582001203111202FF1202EA75825C
:10046700D1120311AA5CAB5DAC5E758201C004C0FA
:1004770003C00212034E1203C4A982D002D003D0D4
:10048700048A828B838CF0E91214A4AA59AB5AAC64
:100497005B758201C004C003C00212034E1203C47D
:1004A700A982D002D003D0048A828B838CF0E91210
:1004B70014A475820112034E1203C4AC82D005D076
:1004C70006D0078D828E838FF0EC1214A4AD5FAE39
:1004D70060AF61758201C007C006C00512034E12E6
:1004E70003C4AC82D005D006D0078D828E838FF0EF
:1004F700EC1214A4AD62AE63AF64758201C007C08D
:1005070006C00512034E1203C4AC82D005D006D034
:10051700078D828E838FF0EC1214A4AD65AE66AFA3
:1005270067758201C007C006C00512034E1203C4D7
:10053700AC82D005D006D0078D828E838FF0EC1267
:1005470014A4AD68AE69AF6A758200C007C006C063
:100557000512034E1203C4AC82D005D006D0078D16
:10056700828E838FF0EC1214A40202FFAF8275080B
:100577004D750900750A408F82120299854D37859E
:100587004E3875393A75084D750900750A40856BFF
:1005970082120299854D3A854E3B753C3A75084D56
:1005A700750900750A40856C82120299854D3D8553
:1005B7004E3E753F0075084D750900750A40856DFB
:1005C70082120299854D40854E4175423A75084D14
:1005D700750900750A40856E82120299854D43851B
:1005E7004E4475453A75084D750900750A40856F83
:1005F70082120299854D46854E47754820E570243D
:10060700F8406BE570240B83F582E570240C83F5C5
:1006170083E473752A35404B56616C060606060659
:10062700060606754D53754E75754F6E8040754DB0
:100637004D754E6F754F6E8035754D54754E75758A
:100647004F65802A754D57754E65754F64801F75C8
:100657004D54754E68754F758014754D46754E72BD
:10066700754F698009754D53754E61754F74854D8A
:1006770049854E4A854F4B754C007552007582006F
:1006870012022E90003775F0401201F7755200756F
:10069700820112022E90004075F0400201F77508A2
:1006A70008750900121545AE82E583FF30E7012280
:1006B700C374079E74808FF063F08095F04065EEF9
:1006C700240A83F582EE240C83F583E473E4EDF6C4
:1006D700FF08111A230606060607070707D2A4C252
:1006E700A3C2A2C2A122D2A4D2A3C2A2C2A122C2E1
:1006F700A4D2A3C2A2C2A122C2A4D2A3D2A2C2A13F
:1007070022C2A4C2A3D2A2C2A122C2A4C2A3D2A2BD
:10071700D2A122C2A4C2A3C2A2D2A122D2A4C2A39E
:10072700C2A2D2A122AE82AF83C374FF9E740F9F71
:10073700500122C007C0061202EA7582AE120311E9
:10074700D006D0078F82C007C006120311D006D08B
:10075700078E821203118571821203111202FF9014
:100767001388020137AE82AF83C374FF9E740F9F55
:1007770050047582FF22C007C0061202EA7582AED6
:10078700120311D006D0078F82C007C006120311CB
:10079700D006D0078E821203111202EA7582AF12B9
:1007A700031175820012034EAF82C0071202FFD0F9
:1007B700078F8222AF827E00EF2FFFEE33FE8F82FC
:1007C7008E83A3857271C007C00612072CD006D08E
:1007D700078F828E83A3A385737102072C85820EF0
:1007E70085830F85F010AA0BAB0CAC0D79008A82BC
:1007F7008B838CF0121529F87F0018B8FF011F8929
:10080700057E00C3ED98EE64808FF063F08095F06D
:10081700400302094B89078906EE04F5128A828B89
:10082700838CF0121529FDC3E5129D40030208B819
:10083700C002C003C004E512250EF8E4350FFDAE73
:100847001088828D838EF0121529FEEF250EF8E4AD
:10085700350FFCAD1088828C838DF0121529F517A2
:10086700C3EE9517D004D003D002403EEEB5173C37
:10087700C002C003C004E5122508F8E43509FDAE3F
:100887000A88828D838EF0121529F8EF2508FCE47B
:100897003509FDAE0A8C828D838EF0121529FCC3B3
:1008A700E89CD004D003D0025002AF120512020810
:1008B70024C002C003C004E9250EF8E4350FFDAEDD
:1008C7001088828D838EF0121529F517EF250EF506
:1008D70018E4350FF51985101A851882851983854F
:1008E7001AF012152988828D838EF01214A4AC1782
:1008F700851882851983851AF0EC1214A4E9250856
:10090700FCE43509FDAE0A8C828D838EF012152921
:10091700F513EF2508F8E43509FAAF0A88828A83C8
:100927008FF01215298C828D838EF01214A4AB13CD
:1009370088828A838FF0EB1214A409D004D003D0E5
:10094700020207F57515017516007511018A828B6C
:10095700838CF0121529F9C3E511994003020A4265
:10096700E511250EF8E4350FF9AF10888289838FDA
:10097700F0121529F8E51524FFFEE51634FFFFEE02
:10098700250EFEEF350FF9AF108E8289838FF01297
:100997001529FEE8B50639E5112508F9E43509FEFC
:1009A700AF0A89828E838FF0121529F9E51524FF86
:1009B700FEE51634FFFFEE2508FEEF3509F8AF0A0E
:1009C7008E8288838FF0121529FEE9B506028066AC
:1009D700C002C003C004E515250EF9E516350FFE64
:1009E700AF10E511250EF8E4350FFCAD1088828CA9
:1009F700838DF012152989828E838FF01214A4E556
:100A0700152508FDE5163509FEAF0AE5112508FA93
:100A1700E43509FBAC0A8A828B838CF01215298D89
:100A2700828E838FF01214A40515E4B515020516FE
:100A3700D004D003D0020511020954AE158A828B67
:100A4700838CF0EE0214A4AF82857582C00712036F
:100A5700ACAE82857482C0061203ACAD82D006D0DC
:100A6700078F82C006C0051203ACAF82D005D0063F
:100A7700C007C006C0051202EA7582D012031175BD
:100A87008207120311D005D006747F5EF582C00578
:100A9700120311D005747F5DF582120311D007741C
:100AA7007F5FF5821203117582801203111202FF14
:100AB7001202EA7582D012031175820E12031175A4
:100AC70082051203111202FF1202EA7582D0120385
:100AD7001175820F1203117582001203110202FFB2
:100AE700E4F52AF52BF535F53685228285236B85C6
:100AF700246C85266D85276E85286FE52504F5709E
:100B0700120573C3E5359407E53664809480400386
:100B1700020BF590271012013720B44890271012C6
:100B27000137E5352422F907E7E5352422F9870758
:100B3700E5352490F88606C3EF9E4009E5352497EE
:100B4700F88607A70785228285236B85246C85266F
:100B57006D85276E85286FE52504F570120573E40A
:100B6700F52AF52B20B545902710120137E53524D6
:100B770022F98707E5352497F88606C3EE9F400AD2
:100B8700E5352490F8E614F78003E714F785228209
:100B970085236B85246C85266D85276E85286FE5F3
:100BA7002504F570120573E4F52AF52B20B613908A
:100BB70027101201370535E4B535020536E4F52A65
:100BC700F52B20B714902710120137153574FFB590
:100BD70035021536E4F52AF52B052AE4B52A020570
:100BE7002BC3741E952AE4952B4003020B0AC3748A
:100BF7001E952AE4952B401A852282852353852446
:100C070054E52504F5558526568527578528581216
:100C170003EEE4F52AF52B22E4F52AF52B1202223E
:100C270075520075820012022E90157F75F08012A2
:100C370001F775520675820112022EAF2974302F03
:100C4700F5821201D690271012013720B41390278E
:100C57001012013774F8252940020529E4F52AF511
:100C67002B20B513902710120137E52924FE5002D7
:100C77001529E4F52AF52B20B6089027101201371D
:100C87008036052AE4B52A02052BC3741E952AE48B
:100C9700952B509E12022275520075820012022E69
:100CA70090159075F0801201F7900BB812015B1246
:100CB7000222E4F52AF52B227F00C3EF9529400392
:100CC700020EEAE4F52AF52BC0071202227552003C
:100CD70075820012022E9015A175F0801201F7752A
:100CE700520075820112022E9015B275F080120122
:100CF700F7D0078F0674312EF582C0071201D6D0C0
:100D070007755209758201C00712022E75084D75C5
:100D17000900750A4085508212029990004D75F0BE
:100D2700401201F7902710120137D00720B4249002
:100D37002710C007120137AD507E008D828E83A326
:100D47007508188E09121545AD82D0078D50E4F548
:100D57002AF52B20B521902710C007120137D0079D
:100D6700E55070047D178008AC501CECFD3395E00E
:100D77008D50E4F52AF52B20B60C902710C00712EA
:100D87000137D007803A20B70122052AE4B52A02A5
:100D9700052BC3741E952AE4952B4003020D0812F8
:100DA700022275520075820012022E90159075F07E
:100DB700801201F7900BB812015BE4F52AF52B229C
:100DC700E4F52AF52BC0071202227552007582003E
:100DD70012022E9015B975F0801201F77552007541
:100DE700820112022E9015B275F0801201F7D0071A
:100DF7008F0674312EF582C0071201D6D0077552BF
:100E070009758201C00712022E75084D7509007514
:100E17000A4085518212029990004D75F0401201E7
:100E2700F7902710120137D00720B424902710C05D
:100E370007120137AD517E008D828E83A375083C62
:100E47008E09121545AD82D0078D51E4F52AF52B91
:100E570020B521902710C007120137D007E5517040
:100E6700047D3B8008AC511CECFD3395E08D51E4CB
:100E7700F52AF52B20B60C902710C007120137D0A2
:100E870007803A20B70122052AE4B52A02052BC3B9
:100E9700741E952AE4952B4003020E051202227553
:100EA700520075820012022E90159075F080120183
:100EB700F7900BB812015BE4F52AF52B22EF24809B
:100EC700F8A650EF2488F8A651C007120222901501
:100ED700C975F0801201F79061A8120137D0070F8A
:100EE700020CC1750888750900750A40750B2975CC
:100EF7000C00750D4090008075F0401207E48529BD
:100F07007190000012072C7F00C3EF95295018EF4E
:100F17002480F98772EF2488F987738F82C00712BC
:100F270007BBD0070F80E275592D755A00755B40D6
:100F3700755C2E755D00755E40755F327560007576
:100F4700614075622F75630075644075653075661D
:100F570000756740756831756900756A4090002CA7
:100F670075F040120444852C0875090090003C1266
:100F770014BFAE82AF83AC2D7D00EC2EF576ED3F2E
:100F8700F577AD291DED2480F987048C08750900D4
:100F970090003CC0051214BFAB82AC83D005ED2492
:100FA70088F987057A00ED2BFBEA3CFCC3E5769BC5
:100FB700E57764808CF063F08095F0503078808618
:100FC700058D0875090090003C1214BFAC82AD83F3
:100FD700788886037A00EB2CFCEA3DFDC3E5769C16
:100FE700E57764808DF063F08095F0501A788086FD
:100FF7008278888674757500120A4E7571009000A4
:101007003A12072C0210E67D00AB297C001BBBFFC0
:10101700011C8D7A757B00C3E57A9BE57B64808C28
:10102700F063F08095F040030210E6ED2480F98725
:10103700048C0875090090003CC0051214BFAB82F0
:10104700AC83D005ED2488F987027F00EA2BF57879
:10105700EF3CF5798D07EF04FE2480F987028A08B3
:1010670075090090003CC007C006C0051214BFAA4E
:1010770082AC83D005D006D007EE2488F987067B9B
:1010870000EE2AFEEB3CFCC3E5769578E5776480B5
:101097008579F063F08095F04041E5769EE57764C9
:1010A700808CF063F08095F050310FEF2480F98742
:1010B70082EF2488F98774757500C005120A4E857A
:1010C7007A82857B83A3852908750900121545AEA9
:1010D700828E7190003A12072CD0050D0210101263
:1010E70002229015D675F0801201F79061A81201BF
:1010F70037020222C021C0E0C0F0C082C083C0070F
:10110700C006C005C004C003C002C001C000C0D0F3
:1011170075D000C2AFD2A712024512022275520043
:1011270075820012022E9015E875F0801201F7758E
:10113700520075820112022E9015F975F080120186
:10114700F7D2A090003F12076CE58204F57190007A
:101157003F12072C7F008F057E008D828E83C0078C
:101167001206A590000312015BD0070FBF8900404C
:10117700E5C2A4C2A3C2A2C2A17E007F0030B51EF1
:10118700C3EE9488EF94135015900001C007C00672
:1011970012015BD006D0070EBE00E20F80DF1202FD
:1011A70022C2A090003A12076C7E008E83A3852985
:1011B700088E09121545AE828E7190003AC006124C
:1011C700072CD0067F00EE2EFEEF33FF8E828F8333
:1011D700A3C007C00612076C858250D006D0078EC1
:1011E700828F83A3A312076C85825185517475750D
:1011F70000855082120A4EC2A7D2AF438702D0D0D1
:10120700D000D001D002D003D004D005D006D0073B
:10121700D083D082D0F0D0E0D02102005CC021C0C2
:10122700E0C0F0C082C083C007C006C005C004C0CC
:1012370003C002C001C000C0D075D000C2AFD2A7A2
:1012470012024512022275520075820012022E9078
:10125700160775F0801201F77552017582011202A7
:101267002E90161775F0801201F7E4F52AF52B304A
:10127700B62930B726052AE4B52A02052BC374E838
:10128700952A7403952B500B120222E4F52AF52BAD
:101297000213A29001F412013780D412022230B651
:1012A7000302132712022275520075820112022EC1
:1012B70090162775F0801201F790753012013712DA
:1012C700022290163275F0801201F775520175826D
:1012D7000112022E90164375F0801201F7E4F52AE9
:1012E700F52B30B62430B721052AE4B52A02052BA1
:1012F700C374E8952A7403952B5006120222021331
:10130700A29001F412013780D912022220B60612E8
:101317000AE702139B30B70302139B120C1F80745A
:1013270020B771E4F52AF52B052AE4B52A02052B27
:10133700C3E52A94E8E52B9403505975592D755A3E
:1013470000755B40755C2E755D00755E40755F329C
:1013570075600075614075622F756300756440752F
:101367006530756600756740756831756900756A1F
:101377004090002C75F040120444852D6B852E6C2F
:10138700852F6D85306E85316F853270852C821281
:1013970005738094C2A7D2AF438702D0D0D000D0C4
:1013A70001D002D003D004D005D006D007D083D017
:1013B70082D0F0D0E0D02102005CD2AFD2A8D28890
:1013C700D2AAD28A43B804C2A0D2A71202451202F7
:1013D700E01203D690003B12076CE582F57C900083
:1013E7003C12076CE582F57D90003D12076CE582A3
:1013F700F57E90003E12076CE582F57F7449B57C57
:1014070012744EB57D0D7449B57E087454B57F03CB
:1014170002147F120222120C1F12024575828012DB
:1014270001B575714990003B12072C75714E9000FC
:101437003C12072C75714990003D12072C757154A9
:1014470090003E12072C75710090003F12072C7513
:10145700710090003A12072C120222755200758211
:101467000012022E90165475F0801201F790753015
:10147700120137120222801E120222755200758253
:101487000012022E90165E75F0801201F7907530EB
:0D149700120137120222C2A743870280FE15
:10157F0020486F77206D616E7920616C61726D7399
:10158F00002054696D65206C696D697420657863FE
:10159F0021002053657420486F757220416C617271
:1015AF006D2000416C61726D200020536574204DD9
:1015BF00696E20416C61726D200020416C61726D0B
:1015CF002053617665640020416C6C20416C617220
:1015DF006D732053617665640020416C61726D20DC
:1015EF005472696767657265640054616B65204D5D
:1015FF0065646963696E6500203C2D20746F2073EC
:10160F0065652054494D45002D3E20746F20434F92
:10161F004E464947555245002045646974204D6F29
:10162F00646500203C2D20746F2073657420414C3D
:10163F0041524D00202D3E20746F2073657420435E
:10164F006C6F636B00204E4F5720494E495400205A
:0A165F005052455620494E495400F0
:0600B500E478FFF6D8FD1F
:100093007900E94400601B7A00901669780175A025
:1000A30000E493F2A308B8000205A0D9F4DAF275CC
:0200B300A0FFAC
:10005C00C000A88118C0D0B6001B18B618004015F7
:10006C00B63F005010C0E0E65407B406005004E65A
:0A007C0054F8F6D0E0D0D0D00032E6
:1014A40020F71130F6138883A88220F509F6A88363
:1014B4007583002280FEF280F5F022E5828508F033
:1014C400A4C582C0F08509F0A4D0F025F0C58385B9
:1014D40008F0A42583F58322E508450960467A01CE
:1014E400E50825E0F508E509334012F509E582959C
:1014F40008E583950940030A80E6C3E50913F50965
:10150400E50813F508C3E5829508F5F0E583950928
:101514004005F58385F082C3E50913F509E5081351
:05152400F508DAE122E8
:1000BB007800E84400600A790175A000E4F309D8E0
:1000CB00FC7800E84400600C7900900001E4F0A398
:0400DB00D8FCD9FA7A
:0D00860075819D12157BE582600302005913
:1015290020F71430F6148883A88220F507E6A883EB
:1015390075830022E280F7E49322E022C2D5E58395
:1015490030E70DD2D5E4C39582F582E49583F5831E
:10155900E50930E70BE4C39508F508E49509F509B1
:101569001214DC30D50BE4C39582F582E49583F53A
:06157900832275820022AE
:00000001FF
