:0600000002005C0207068D
:01000B0032C2
:03001300020BFAE3
:200018000000E2FBEAF2802C0000E0FBEAF08024E6B50202EBF62200E2B50202EBF22200CE
:20003800E0B50202EBF02230F6E0A88220F5D3EAC6F582228B822230F6E6A88220F5D980DE
:01005800CFD8
:2000B500752200752300752400752500752601752701752819752901E4F52AF52B788D769D
:2000D50018788E763C788F763C789076077891761F7892760C7893766478947600789576E9
:2000F5000078967600789776007898760178997601789A7600C200C201C202C203020059E2
:03005900020D4055
:20011500AE82AF837C007D00C3EC9EED9F50147A057B001ABAFF011BEA4B70F70CBC00E8FD
:200135000D80E522AE82AF837C007D00C3EC9EED9F50147AFB7B041ABAFF011BEA4B70F7FF
:200155000CBC00E80D80E522D292900001120115C292900001020115E582FF540124FF92BC
:2001750093EF03540124FF9294EF0303540124FF9295EFA2E3E43324FF929602015DAF824C
:20019500C290C291EFC4540FF582C00712016DD007740F5FF58212016D900002020115AFC8
:2001B50082D290C291EFC4540FF582C00712016DD007740F5FF58212016D900002020115C5
:2001D500AD82AE83AFF08D828E838FF0120F8DFC60188C820DBD00010EC007C006C00512FF
:2001F50001B4D005D006D00780DC22758201120193900002020115E5827008AF5474802FE8
:20021500FF8006AE5474C02EFF8F82020193C290C291C29290001412011575820312016DFB
:2002350090000512011575820312016D90000512011575820312016D900005120115758287
:200255000212016D75822812019375820C12019375820612019375820112019390000202C4
:200275000115AF82AC08AD09AE0A8F0375F00AEB8424308C828D838EF0120F0874012CF9DD
:20029500E43DFA8E0375F00AEF84AFF074302F89828A838BF0120F0874022CFCE43DFD8C45
:2002B500828D838EF0E4020F08D2B1D2B0900001020115D2B1D2B0900001120115C2B190AD
:2002D5000001120115C2B022C2B1D2B0900001120115D2B1900001020115AF827E008F052F
:2002F500530580ED24FF92B1D2B0900001C007C006120115D006D007C2B0EF2FFF0EBE08E6
:200315000040DBD2B1D2B0900001120115A2B1C2B0D322AF827E00D2B17D00EE2EFED2B0EA
:20033500900001C007C006C005120115D005D006D00730B103430601C2B0900001C007C063
:2003550006C005120115D005D006D0070DBD080040C9EFB401009204E43324FF92B1D2B0FF
:20037500900001C006120115D006C2B0D2B18E8222AF828F0675F00AEE84C454F0FE75F0DA
:200395000AEF84E5F04EF58222E582FFC4540F75F00AA4FE740F5F2EF582221202C87582F5
:2003B500D01202EF7582001202EF7582001202EF0202DDAF82C0071202C87582D01202EFE2
:2003D5007582001202EF8556821203861202EF8555821203861202EFD0078F821203861284
:2003F50002EF8557821203861202EF8558821203861202EF8559821203861202EF855A829F
:200415001203861202EF0202DDAD82AE83AFF0C007C006C0051202C87582D01202EF75825A
:20043500001202EF1202DD1202C87582D11202EFAA5EAB5FAC60758201C004C003C002129B
:20045500032812039EA982D002D003D0048A828B838CF0E9120F08AA5BAB5CAC5D75820150
:20047500C004C003C00212032812039EA982D002D003D0048A828B838CF0E9120F087582EB
:200495000112032812039EAC82D005D006D0078D828E838FF0EC120F08AD61AE62AF63754D
:2004B5008201C007C006C00512032812039EAC82D005D006D0078D828E838FF0EC120F08FE
:2004D500AD64AE65AF66758201C007C006C00512032812039EAC82D005D006D0078D828E47
:2004F500838FF0EC120F08AD67AE68AF69758201C007C006C00512032812039EAC82D00551
:20051500D006D0078D828E838FF0EC120F08AD6AAE6BAF6C758200C007C006C00512032894
:2005350012039EAC82D005D006D0078D828E838FF0EC120F080202DDAF8275084D75090035
:20055500750A408F82120277854D37854E3875393A75084D750900750A40856D8212027729
:20057500854D3A854E3B753C3A75084D750900750A40856E82120277854D3D854E3E753F86
:200595000075084D750900750A40856F82120277854D40854E4175423A75084D750900756A
:2005B5000A40857082120277854D43854E4475453A75084D750900750A40857182120277B0
:2005D500854D46854E47754820E57224F8406BE572240B83F582E572240C83F583E4734F31
:2005F500040F1A25303B460606060606060606754D53754E75754F6E8040754D4D754E6F33
:20061500754F6E8035754D54754E75754F65802A754D57754E65754F64801F754D54754EDC
:2006350068754F758014754D46754E72754F698009754D53754E61754F74854D49854E4AD4
:20065500854F4B754C0075540075820012020C90003775F0401201D575540075820112029C
:200675000C90004075F0400201D5750808750900120FA9AE82E583FF30E70122C374079E92
:2006950074808FF063F08095F04065EE240A83F582EE240C83F583E473BEC7D0D9E2EBF460
:2006B500FD0606060606060606D2A1C2A2C2A3C2A422D2A1D2A2C2A3C2A422C2A1D2A2C2C7
:2006D500A3C2A422C2A1D2A2D2A3C2A422C2A1C2A2D2A3C2A422C2A1C2A2D2A3D2A422C2AC
:2006F500A1C2A2C2A3D2A422D2A1C2A2C2A3D2A422C2A8D200D2A832AF82BF08004005EFFB
:2007150024C0500122C0071202C87582D01202EFD0078F821202EF8573821202EF0202DDB7
:20073500AF82BF08004005EF24C050047582FF22C0071202C87582D01202EFD0078F8212C1
:2007550002EF1202C87582D11202EF758200120328AF82C0071202DDD0078F8222E5822539
:2007750082FF2409F582857473C00712070DD007740A2FF58285757302070DAF827E00C3F6
:20079500EE9F503DEE247DF98E05ED2DFD2409F582C007C006C005C001120735E582D001BB
:2007B500D005D006F7EE2485F9740A2DF582C006C001120735E582D001D006D007F70E8091
:2007D500BE22E4F535F53685228285236D85246E85266F852770852871E52504F5721205B6
:2007F5004DC3E5359407E5366480948040030208E190271012011520B448902710120115E4
:20081500E5352422F907E7E5352422F98707E535248DF88606C3EF9E4009E5352494F8865D
:2008350007A70785228285236D85246E85266F852770852871E52504F57212054DE4F52A69
:20085500F52B20B545902710120115E5352422F98707E5352494F88606C3EE9F400AE53569
:20087500248DF8E614F78003E714F785228285236D85246E85266F852770852871E525049D
:20089500F57212054DE4F52AF52B20B6139027101201150535E4B535020536E4F52AF52B15
:2008B50020B714902710120115153574FFB535021536E4F52AF52B052AE4B52A02052BC34B
:2008D500741E952AE4952B40030207F6C3741E952AE4952B401A852282852355852456E5B0
:2008F5002504F55785265885275985285A1203C8E4F52AF52B221202007554007582001257
:20091500020C900FE375F0801201D575540675820112020CAF2974302FF5821201B49027DE
:200935001012011520B41390271012011574F8252940020529E4F52AF52B20B51390271098
:20095500120115E52924FE50021529E4F52AF52B20B611902710120115852973758208126F
:20097500070D8036052AE4B52A02052BC3741E952AE4952B509512020075540075820012F1
:20099500020C900FF475F0801201D5900BB8120139120200E4F52AF52B227F00C3EF9529ED
:2009B5004003020BE5E4F52AF52BC00712020075540075820012020C90100575F080120172
:2009D500D575540075820112020C90101675F0801201D5D0078F0674312EF582C007120139
:2009F500B4D007755409758201C00712020C75084D750900750A4085508212027790004DE0
:200A150075F0401201D5902710120115D00720B424902710C007120115AD507E008D828EA8
:200A350083A37508188E09120FA9AD82D0078D50E4F52AF52B20B521902710C007120115D3
:200A5500D007E55070047D178008AC501CECFD3395E08D50E4F52AF52B20B60C902710C0D3
:200A750007120115D007803A20B70122052AE4B52A02052BC3741E952AE4952B400302097D
:200A9500F812020075540075820012020C900FF475F0801201D5900BB8120139E4F52AF55E
:200AB5002B22E4F52AF52BC00712020075540075820012020C90101D75F0801201D57554A3
:200AD5000075820112020C90101675F0801201D5D0078F0674312EF582C0071201B4D0074B
:200AF500755409758201C00712020C75084D750900750A4085518212027790004D75F040C4
:200B15001201D5902710120115D00720B424902710C007120115AD517E008D828E83A375B0
:200B3500083C8E09120FA9AD82D0078D51E4F52AF52B20B521902710C007120115D007E58C
:200B55005170047D3B8008AC511CECFD3395E08D51E4F52AF52B20B60C902710C00712014D
:200B750015D007803A20B70122052AE4B52A02052BC3741E952AE4952B4003020AF512028C
:200B95000075540075820012020C900FF475F0801201D5900BB8120139E4F52AF52B22EF2D
:200BB500247DF8A650EF2485F8A6518550748551758F82C00712077212020090102D75F0CD
:200BD500801201D59061A8120115D0070F0209B112020090103A75F0801201D59061A812CF
:200BF5000115020200C2AAD201D2AA32AF827E00C3E5779402E433FD7C00EC247DF98703D5
:200C1500EFB503028003020CC6EC2485F9E7B576028003020CC6ED7003020CC6C0061202B8
:200C35000075540075820012020C90104C75F0801201D5D0068E0374312BF5821201B4751C
:200C5500540075820112020C90105475F0801201D5D2A075823F12073575730075823F122C
:200C7500070D757800AA787B008A828B8312067F90000312013905787477257850E7C2A192
:200C9500C2A2C2A3C2A47A007B0030B51EC3EA9488EB94135015900001C003C002120139F6
:200CB500D002D0030ABA00E20B80DF120200C2A0220C8C06BC08005003020C0F2275823FA8
:200CD500120735AF828F08750900900089120F23E5828583F0FE53F00FAFF08E048F05EEAC
:200CF5004F603FE4C39CFE74109DFF7C007D00C3EC9EED9F50248C828D83C007C006C005DA
:200D1500C00412067F900003120139D004D005D006D0070CBC00D80D80D5C2A1C2A2C2A300
:200D3500C2A475730075823F02070DD2AFD2A8D288D2AAD28A1202231202BE1203B0758212
:200D550008120735858229120790C2A075823B120735E582F57975823C120735E582F57A41
:200D750075823D120735E582F57B75823E120735E582F57C7449B57911744EB57A0C7449F4
:200D9500B57B077454B57C02802D75734975823B12070D75734E75823C12070D75734975A1
:200DB500823D12070D75735475823E12070D75730075823F12070D209703120CD220005044
:200DD50020014D755B2D755C00755D40755E2E755F007560407561327562007563407564F6
:200DF5002F756500756640756730756800756940756A31756B00756C4090002C75F040122F
:200E1500041E852D76852E77852C82120C0180A730005812020075540075820012020C90C4
:200E3500106275F0801201D575540075820112020C90107375F0801201D530B60320B7FAE3
:200E550012020075540075820012020C20B60B9027101201151207D7800C20B70990271096
:200E750012011512090BC200020DCC200103020DCCE4F52AF52B052AE4B52A02052BC3E584
:200E95002A94E8E52B94035065755B2D755C00755D40755E2E755F00756040756132756292
:200EB5000075634075642F756500756640756730756800756940756A31756B00756C409060
:200ED500002C75F04012041E852D6D852E6E852F6F853070853171853272852C8212054D89
:130EF500852D76852E77852C82120C018088C201020DCCA0
:200FE30020486F77206D616E7920616C61726D73002054696D65206C696D697420657863DD
:2010030021002053657420486F757220416C61726D2000416C61726D200020536574204DAF
:20102300696E20416C61726D200020416C61726D2053617665640020416C6C20416C6172B0
:201043006D732053617665640020416C61726D200054616B65204D65646963696E6500208A
:201063002D3E20746F2073657420636C6F636B00203C2D20746F2073657420616C61726D42
:01108300006C
:06008B00E478FFF6D8FD49
:200069007900E94400601B7A00901084780175A000E493F2A308B8000205A0D9F4DAF275A9
:02008900A0FFD6
:1B0F080020F71130F6138883A88220F509F6A8837583002280FEF280F5F022E8
:1D0F2300E5828508F0A4C582C0F08509F0A4D0F025F0C5838508F0A42583F5832290
:200F4000E508450960467A01E50825E0F508E509334012F509E5829508E583950940030A7E
:200F600080E6C3E50913F509E50813F508C3E5829508F5F0E58395094005F58385F082C323
:0D0F8000E50913F509E50813F508DAE1228B
:200091007800E84400600A790175A000E4F309D8FC7800E84400600C7900900001E4F0A36D
:0400B100D8FCD9FAA4
:0D005C0075819A120FDFE5826003020059E2
:1C0F8D0020F71430F6148883A88220F507E6A88375830022E280F7E49322E02273
:200FA900C2D5E58330E70DD2D5E4C39582F582E49583F583E50930E70BE4C39508F508E480
:160FC9009509F509120F4030D50BE4C39582F582E49583F583223A
:040FDF0075820022F5
:00000001FF
